:020000040800F2
:106000000812002021020108B50F0808A9FE08089F
:10601000A1420808B50F0808B50F0808B50F080811
:10602000B50F0808B50F0808B50F0808D1800C088F
:10603000B50F0808F0F90C0861800C0899D20C081B
:10604000A1FC0008B50F0808B50F0808B50F08082F
:10605000B50F0808B50F0808B50F0808B50F0808F0
:10606000B50F08082D1F020815A708089D1E020875
:1060700011A70808B50F0808B50F0808E9010108BD
:10608000B50F0808B50F0808B50F0808B50F0808C0
:10609000B50F08085D0C0108B50F0808B50F080812
:1060A000B50F0808CD040108AD040108D594000817
:1060B000059500080DD30708ADDD070855770C08D6
:1060C00051770C083DD507086B770C0859770C08F9
:1060D0007DDD07085D770C08EDDD070859DE070850
:1060E000B50F0808B50F0808B50F0808B50F080860
:1060F000AD380808B50F0808B50F0808B50F08082F
:10610000B50F0808B50F0808B50F0808B50F08083F
:10611000B50F0808B50F0808B50F0808B50F08082F
:10612000B50F0808B50F0808B50F0808B50F08081F
:10613000B50F0808B50F0808B50F0808B50F08080F
:10614000B50F080835550108B50F0808EDD10C0842
:10615000B9B40708B50F0808EB760C08F1760C08FF
:10616000B50F0808B50F0808B50F0808B50F0808DF
:10617000F0B5114A114C124E00F00105E3695F07BA
:1061800013D40DB9334213D103EA00078F4207D16C
:106190000B4A1A40002A0CBF00206FF00100F0BD2E
:1061A000013AEBD16FF00200F9E74FF0FF30F6E76C
:1061B0006FF00100F3E700BF8096980000000350E5
:1061C0000200010070B50B4BD96911F480310DD17B
:1061D00001244FF48072084E084DF46020462C6470
:1061E0001A61FFF7C5FF3464EC6070BD6FF0010009
:1061F000FBE700BF000003500010035000200350D5
:106200004FF4803238B50E4B0E4C9A66E56941F674
:10621000713315400122E3630B4B0021DA60022346
:10622000606121202361FFF7A3FF10B92120FFF750
:106230009FFF0122054BDA600DB10023E36338BDF7
:106240000090005000000350001003500020035045
:1062500070B5134C6061E3695B071ED40E4656F8B7
:10626000043B8D18A361AE420BD1042300212120F1
:106270002361FFF77DFF58B9BDE870402120FFF78B
:1062800077BF08210846FFF773FF10B1042323618D
:1062900070BD56F8043BA361E5E74FF0FF30F7E728
:1062A000000003502DE9F84315464FF48032184B97
:1062B00089469A6603F51C33DF690646174041F6A6
:1062C0007132DA63012203F58053DFF84C80DA6023
:1062D00055B9284601220F4BDA601FB10022A3F501
:1062E0000053DA63BDE8F88306F5005404EA0804B5
:1062F000A41BAC4228BF2C46494622463046FFF735
:10630000A7FF0028E6D12644A1442D1BE0E700BFEB
:10631000009000500020035000E0FFFF000000004C
:10632000000000000000000000000000000000006D
:10633000013800D0FCE770472DE9F84F60220021BA
:106340002948ABF0F9FC482200212848ABF0F4FCC6
:1063500000209FED237B264B264E274ADFF888B08E
:10636000DFF8ACA0DFF8AC90DFF8AC80DFF8ACE091
:106370001E4FA3F1180C2425002145430BEB4014BC
:1063800043E9054A0CEB050443E9039843F8181C5C
:1063900043F804EC21772162182404FB007442F8CE
:1063A000144C164C013042F8104C154C032842F89E
:1063B0000C4C144C42F8181C42F8084C124CA6EC39
:1063C000027B42F8044C114C43F8241B2C442177E7
:1063D000216242F8241BCED1BDE8F88FAFF30080D4
:1063E0000000000000000000008B0120B88A01209E
:1063F000648A0120C0140020F889012039AB01080B
:10640000EB430808094408083F440808E0890120D4
:1064100061AB01080D440808D3430808114408087B
:106420002DE9F043022089B0C3F0B4F800B9FEE7CB
:10643000654E336803B9FEE71020C3F0ABF833684C
:10644000624C9B880DF10B018DF80B300123206805
:106450001A46C0F099FB9DF80B203168023A0023E0
:10646000096892B22068C0F08FFB3368584993F8EE
:1064700029208DF814200022CDE906121B681D7812
:1064800015F020051FD02068C0F01BF9002851D05E
:106490002068C0F016F950F06BFE02460B4646A18C
:1064A000D1E9000151F008F880460798894650F07C
:1064B0005FFE02460B464046494650F01DFD51F036
:1064C000A9F9012507902068C0F009F99DF80B3063
:1064D00098B3981DC00050F05BFE39A3D3E90023A8
:1064E00050F0C0FE804620688946C0F0F8F850F0B1
:1064F0003FFE02460B464046494650F0DDFF8046CF
:106500000798894650F034FE02460B4640464946FD
:1065100050F0F2FC51F07EF907902020C3F03AF8D9
:1065200080B14FF48050C3F007F97EF08CFB09B0C6
:10653000BDE8F0830798C030C3E70798063300EB47
:106540004310E9E7336805AF5A69FAB91020C3F080
:1065500021F898B1079B326803F5FA73117E07930F
:106560001C4B99701C490978D970917900972A467B
:106570002068BFF0D5FE0028D3D1D8E731683B466C
:106580002A4689792068BFF0B5FEF4E71969ADF8AD
:1065900010000A4496211148A2F59B7281809979D6
:1065A000CDE90007039220682A4603ABBFF0C3FE83
:1065B000E1E700BFAFF300800000000060E3664148
:1065C0000000000080842E41488C0120A48B012013
:1065D00020A10700AC3402204E410220A03402204A
:1065E000F7B50120C2F0D6FF0446002840F0B58080
:1065F0005D4D5E4B5E4EC5E9003005F11003AB60AA
:1066000041F60B233060B38015F0A2FA594B1B6A98
:10661000DB0700D4FEE7214628466DF04DFB04461B
:1066200000B9FEE76EF010FF00B1FEE720465249C8
:106630006EF04AFA00B1FEE702212046C0F022F8CF
:1066400000B1FEE720464D496EF0E6FC00B1FEE7E2
:1066500001212046C0F041FC00B1FEE701212046A7
:10666000C0F051FC074600B1FEE701463C22444819
:10667000ABF062FB80233A46204605F11401C0F0DE
:1066800099FA802800D0FEE73E4D0120BFF02DFE94
:1066900033A3D3E900232C602046CDE900234FF03B
:1066A000FF324FF0FF33C0F0ADF8014600B1FEE716
:1066B0002F4814F0D9FD01210846C2F057FF0121EF
:1066C0002868BFF0FFFE044600B1FEE72E4B2F4ABC
:1066D000988018602E4B1A60FF2298802D4B83F80B
:1066E00028202D4A98801A602C4A6FF06300DA60E7
:1066F0001BF088FB33790B2B11D873790A2B0ED939
:10670000274B1E600EF0B2FE204615F013FA082249
:1067100028681146C0F090F8044608B1FEE7FEE78D
:1067200015F000FA1F4B10211F481C707EF0DBFB98
:1067300000B9FEE71D491C487EF0E7FB00B9FEE703
:1067400010218C201A4A7DF046FD00B1FEE7194861
:1067500003B0BDE8F040AFF0B9B903B0F0BD00BF81
:106760000AE020FFE2030000B48B0120D9990C0855
:10677000AC8B01200080E00F0700110060000D08C5
:10678000648B0120A48B0120481500209217022061
:1067900018150020E814002012170220D814002039
:1067A000A88B0120141802205C8C01202DD20C082B
:1067B0004C8C012054000D082DE9F04F2DED028B7B
:1067C000884204460D4690461E4697B00AD10346BD
:1067D00001211D202E4A17B0BDEC028BBDE8F04F01
:1067E000A3F086BC9FED288B0DF10C092A214846A9
:1067F00005AF37F019F899E8030087E80300DFF8E0
:1068000094A0DFF894B0BDF81620BDF814309A4279
:1068100004D117B0BDEC028BBDE8F08F384636F0DE
:10682000DFFF0AAB814696E8030083E8030009AB6B
:1068300008938DF824408DF825508DF82680CDF8EA
:106840001CA02EF097FC00230E938DF840308DF89D
:1068500051302A23ADF830904FF001090D930CAA66
:106860006B4607A98DED128B8DF8509095F0CEFAFE
:10687000034620B15A4649461D20A3F039FC38464C
:106880009AF03EFDBFE700BF0000000000000000DE
:10689000EC660D08F8670D082C670D080000000075
:1068A0002DE9F0472DED028B9FED2B8B9CB00DF168
:1068B00008082A21054604AC404616461F4636F015
:1068C000B3FF98E8030084E80300DFF89480DFF862
:1068D0009490BDF81220BDF810309A4204D11CB03B
:1068E000BDEC028BBDE8F087204636F079FF26A983
:1068F00031F8083B0DF1380C8246ADF830300FC945
:106900008CE80F0008AB0793CDE90A670895CDF82E
:1069100018802EF02FFC00232A228DF858308DF895
:1069200069300223ADF848A04FF0010ACDE91323E6
:1069300006A96B4612AA8DED188B8DF868A095F00C
:1069400065FA034620B14A4651461D20A3F0D0FB0C
:1069500020469AF0D5FCBCE70000000000000000D3
:1069600020680D0883670D082DE9F04F2DED028B8F
:10697000083085B00F469146DDF85080A3F0DBFB70
:106980000446002800F09A806E4600259FED4E8B4D
:106990004FF0010B41F2A45A10AB0FCB86E80F0069
:1069A0004B4BC4E902552360C4E90455C4E90655BC
:1069B0002C336360474B04F1480C0FCB84ED0E8BF6
:1069C000C4E90C5584F8205084F840508CE80F003E
:1069D000414B84F858B0A4F85AA0E56584ED188BB3
:1069E000A36604F17C03C4E91F333C4B1022C4F8B6
:1069F00090302946C4E91B55C4E9255584F87450E4
:106A0000C4F88450C4F89C5004F1A000ABF094F991
:106A100084ED2E8B84F8B0B0A4F8B2A0C4F8B450C2
:106A200004F1C000A4F0BEF84AF6C873C82284ED91
:106A3000368B84ED388BC4E93A2304F58273C4E9BC
:106A40003E55C4E94133A4F8CC5084F8CE50A4F8A4
:106A5000D05084F80051C4F80C513B68A3607B68A7
:106A6000E360BB682361FB6863613B69A3617B6989
:106A7000E3613B7E84F8203033B104F1240307F155
:106A80001C0207CA83E8070038468AF08FF8A8B9C5
:106A9000B9F1000F12D0B8F1000F0FD003CE337848
:106AA000C4F8309084F84030012384F8F830231D76
:106AB000A063E163C4F88880C4F89C30204605B028
:106AC000BDEC028BBDE8F08F00000000000000006C
:106AD000908D0D08DCC30120884E0E08808D0D08B6
:106AE0002DE9F04F2DED028B00240025CBB0994607
:106AF000CDE92E450023CDE93045CDE934454FF6AB
:106B0000FF74DFF898A2064688461746CDE90C3395
:106B10008DF8C8303393CDF8D8A04894A2B3054679
:106B200000F53474A54206D10B2420464BB0BDECD1
:106B3000028BBDE8F08F28468AF05DF908B19035E8
:106B4000F0E79FED8F8BBDF85C318DF8C880ADF814
:106B500020318D4B4FF4C8710E93002309A8CDE965
:106B600009330F93CDF870A00B938EF08AFF099C28
:106B700014BB0B240BA889F0F5FE0AA889F0F2FEDD
:106B800009A889F0EFFED0E79CF0B8FE044608B9EA
:106B9000AC24CAE706F5347528469AF0F7F8B4F83D
:106BA00082308DF8C880ADF8203121460CA894EDD4
:106BB000028B9CF010FECCE74FF4C8710AA88EF04F
:106BC00060FFDDF828A0BAF1000FD2D04FF4C871F1
:106BD0000BA88EF056FF0B9A002ACAD04FF4C87348
:106BE0004146CDE91332304610AA1094CDE9113A4E
:106BF00015939CF0E3FE04460028BBD14146304685
:106C000012AA9CF0BDFE04460028B3D1414630468E
:106C100014AA9CF092FE04460028ABD110A916A835
:106C20008EF025FF12A918A88EF021FF14A91AA82A
:106C30008EF01DFF36AB079330AB05930DF1B80A0C
:106C400034ABCDE903A30DF1700B0EAB8DED008BD2
:106C5000CDF818B002931AAA18A916A83BF0DCFBCD
:106C60000446002886D10BA889F07CFE0AA889F08A
:106C700079FE09A889F076FEB9F1000F13D1D6F894
:106C8000640300285ED003689B6898470346D6F8E3
:106C90006403002B4ED003685A4641465B6998470F
:106CA000044688B141E7D9F8003048465B69984707
:106CB00059469DF053F908B9C52436E79DF8583177
:106CC000CDF8CC908DF822319DF860315146B3FA61
:106CD00083F328465B098DF823319DF0C3F8044601
:106CE00000287FF422AF28460CA99CF0B9FD06F5D8
:106CF0005D7495F881303FB302211120234AA3F03F
:106D0000F7F9D5E900122B69CDE9012100936B69F0
:106D1000022111201E4AA3F0EBF920460F993DF005
:106D200035FB034630BB96F88233013386F8823355
:106D30000024FAE603684146DB6898470028C3D17F
:106D40001024F2E60324F0E6D5E900121120CDE983
:106D5000002102210F4AA3F0CBF920460F993DF004
:106D600015FB03460028E3D0012111200A4AA3F0B5
:106D7000BFF9DDE701211120074AA3F0B9F9D2E7F5
:106D8000000000000000000048EE0D0873ED0D0843
:106D900093ED0D08D6ED0D080BEE0D08DC1C0E086A
:106DA0002DE9F0478AB00DF10D0301931523064636
:106DB00000934FF48072002308460C46A2F087FA35
:106DC000E8B996F892300122009320460023A2F001
:106DD00005FAA0B996F893300222009320460023CA
:106DE000A2F0FCF958B90DF10E030193162303220A
:106DF000009320460023A2F06AFA054610B10AB0BB
:106E0000BDE8F0874FF0100906F1C8070DF118082A
:106E1000102200214046AAF08FFF0DF10F030193CD
:106E200015234FF48072009320460023A2F04FFAFE
:106E30000028E4D196F89320EBB29A4251D917ED8D
:106E40000C7BC44637F828ACA7F12603A7F1160E31
:106E5000624618685968083303C273459446F7D1EF
:106E60008DED007B042200232046A2F092F9002839
:106E7000C5D1052200232046CDF800A0A2F0AEF92E
:106E80000028BCD14046494606228DE80300002375
:106E90002046CDE90489A2F0EDFA0028AFD12046C2
:106EA0009DF90F10A2F048FA013530370028A6D11D
:106EB000032DADD120469DF90E10A2F03DFA002819
:106EC0009DD1B6F88A300722009320460023A2F015
:106ED00085F9002893D120469DF90D10A2F02CFAD7
:106EE0008DE782469FED027BBAE700BFAFF30080DB
:106EF0000000000000000000054B18680368D96915
:106F000001A3D3E90023084700E0373B015D0300FC
:106F100094390220000000002DE9F04FC76997B0B6
:106F20008346209E08910C92129355EC104B8DEDE8
:106F3000000B7FB9102051F0EDF90246CBF81C0090
:106F400020B9A74BEF21A74852F016F9C0E9017705
:106F50000760C760DBF81C30196859B15A68012313
:106F6000584693404A608B6052F060FADBF81C3060
:106F700000221A602B1EB7BF23F00043002301221A
:106F80000193A8BF3360019F974BB8BF3260BB43EA
:106F900019D142F20F73129A1360C7F313032343FC
:106FA00000F0DB85219B53B9904B21E0904B03937C
:106FB0000833219A1360039817B0BDE8F08F8B4B0C
:106FC00003930333F5E79DED007B0022002351EC92
:106FD000170B8DED0A7B50F0ADFB804650B10123BD
:106FE000129A1360219B13B1824B219A1360824B3A
:106FF0000393E0E7C7F30A5614AA15A958469DED76
:107000000A0B52F09BFC0290002E76D00B9BA6F24E
:10701000FF36CDF84C80C3F3130343F07F53DDE913
:107020000A0143F4401319460022744B4FF062FFEB
:1070300065A3D3E9002350F015F965A3D3E9002334
:107040004FF05AFF04460D46304650F0A1F862A3B7
:10705000D3E9002350F006F902460B4620462946A4
:107060004FF04AFF04460D4650F0ACFB00220746A5
:1070700000232046294650F067FB40B1384650F0C7
:1070800087F822462B4650F055FB00B9013F162FDA
:1070900052D85B4B03EBC703DDE90A01D3E90023B8
:1070A00050F052FB002849D0013F00231193149B5C
:1070B0009B1B5A1E4CBFC3F101030023079245BF1F
:1070C0000693002306930793002F39DB079B109745
:1070D0003B44079300230993089B092B66D8052B93
:1070E000C5BF043B002401240893089B023B032BEB
:1070F00067D8DFE803F02D3A3859DDE914631E4400
:1071000006F23243202BC9BFC3F14003C3F1200371
:107110009F4006F21243D8BF04FA03F006F1FF368F
:10712000C4BF24FA03F347EA030050F021F8012218
:10713000A1F1F873139276E70123B7E71190B6E750
:10714000069BDB1B06937B42099300231093C3E746
:1071500000230D930C9B002B56DC012399461A4605
:1071600004930C920CE00123F3E700230D930C9B96
:10717000FB1803F1010904934B46012BB8BF01230F
:10718000DBF81C000021042202F114059D423FD9C6
:107190004160584652F00AF9039000283BD1194B40
:1071A000024640F2AF11CEE60123DFE701240023BF
:1071B0000D9408934FF0FF33002299460493122355
:1071C000CFE701230D93F5E761436F63A787D23FB4
:1071D000B3C8608B288AC63FFB799F501344D33FC6
:1071E0002D5A0E0883620E080000F07F7F620E08A1
:1071F00076620E08CC500D08CB500D080000F83F09
:1072000090630E08E4620E080C9B99460493B7E75E
:1072100001315200B8E7DBF81C30B9F10E0F039AC8
:107220001A606FD8002C6DD0002F36DD07F00F02EA
:10723000A04BF8054FEA271403EBC20393ED007B44
:107240008DED0E7B17D59C4B04F00F044FF0030817
:10725000D3E90823DDE90A0150F02EF9CDE9000158
:10726000954D5CB9DDE90E23DDE9000150F024F90C
:10727000CDE900012BE04FF00208F1E7E10709D565
:1072800008F10108DDE90E01D5E900234FF0EAFF1E
:10729000CDE90E0164100835E3E700F007817C4278
:1072A000844B854D4FF0020804F00F02241103EBCC
:1072B000C203DDE90A01D3E900234FF0D3FF002325
:1072C000CDE90001002C40F0E580002BD0D1119BCE
:1072D000DDE90045002B00F04C810022774B204671
:1072E000294650F031FA002800F04381B9F1000F2F
:1072F00000F03F81049B002B00F3E480DDE90A34B9
:10730000CDE90034159B002B02DB0E2F40F34282A7
:107310000D9A002A40F06782099C0025DDF818804C
:10732000B8F1000F0DD0079B002B0ADD4345069AEC
:10733000A8BF4346D21AA8EB03080692079AD31AAD
:107340000793099B0BB30D9B002B00F0A682002C2A
:1073500000F0A18229462246584652F091F9029A3D
:1073600001460546584652F0E1F80299064658464D
:1073700052F05CF8099B1B1B099300F09182099A5B
:107380003146584652F07CF902900121584652F09D
:10739000B7F8109B0446002B00F084821A46014681
:1073A000584652F06DF9089B0446012B03DC009B04
:1073B000002B00F07C820026236904EB830318690C
:1073C000AAF01EFEC0F120001096079B184410F092
:1073D0001F0000F09182C0F12003042B40F3818252
:1073E000C0F11C00069B034480440693079B0344A2
:1073F0000793069B002B05DD1A460299584652F06A
:1074000099F90290079B002B05DD21461A46584644
:1074100052F090F90446119B002B00F07682214631
:107420000298AAF03CFE002880F26F8200230A2214
:107430000299584652F01CF80D9B7E1E0290002BBC
:1074400000F05C82002329460A22584652F010F8C8
:10745000049B0546002B03DC089B022B00F35E8295
:10746000B8F1000F05DD29464246584652F062F950
:107470000546109B002B00F0D0826968584651F0F9
:1074800095FF0746002840F07F820D4B024640F2F0
:10749000EF2158E5E20706D508F10108D5E90023F8
:1074A0004FF0E0FE0123641008350BE74FF00208AF
:1074B0000DE700BF90630E0868630E080000F03F00
:1074C000E4620E0820460022AC4B29464FF0CAFE6B
:1074D0007E1E08F10108049CCDE9000140464FF0F2
:1074E00057FEDDE900234FF0BDFEA54B00224FF013
:1074F00003FDA1F15073CDE90E010F93002C3BD198
:107500000022A04BDDE900014FF0F4FC02460B46DF
:10751000CDE90023DDE90E2350F034F9002840F0D6
:107520005781DDE90E2101F10043DDE9000150F052
:107530000BF900283FF4E2AE002425460C9BDDF851
:107540000CA0DE434FF000082146584651F06EFF74
:10755000002D00F0A980B8F1000F05D0A84503D098
:107560004146584651F062FF2946584651F05EFFA9
:107570009AE03E464C46B1E7834B03EBC40353E924
:107580000201039B1C440D9B002B4AD002460B4674
:1075900000207E494FF090FFDDE90E234FF0AAFC5A
:1075A000DDF80CA0CDE90E01DDE9000150F00AF98B
:1075B00005464FF0EDFD024630350B46DDE9000192
:1075C0004FF098FC0AF8015B02460B46CDE900013A
:1075D000DDE90E0150F0D6F8002865D100206C4995
:1075E000DDE900234FF086FC02460B46DDE90E0183
:1075F00050F0C8F8002840F00D81A24500F0EA8064
:1076000000225E4BDDE90E014FF02CFE00225B4BA9
:10761000CDE90E01DDE900014FF024FECDE90001C6
:10762000C2E7DDE90E234FF01DFEA046DDF80CA0F9
:10763000CDE90E01DDE9000150F0C4F805464FF038
:10764000A7FD024630350B46DDE900014FF052FC44
:107650000AF8015B02460B46A245CDE900234FF034
:10766000000223D1494BDDE90E014FF045FC0246F3
:107670000B46DDE9000150F085F8002840F0CA8093
:1076800000204249DDE90E234FF034FC02460B4650
:10769000DDE9000150F058F870B1C24608F1FF383A
:1076A0001AF8013C302BF8D0374655E0334B4FF0F9
:1076B000D9FDCDE90001BDE7DDE90A34CDE90034AB
:1076C000159B002BFFF628AE0E2F3FF725AE2E4B55
:1076D00003EBC70393ED007B0C9B002B8DED047B2C
:1076E00002DAB9F1000F64D0DDF80CA0DDE9004545
:1076F000DDE90423204629464FF0DEFE50F062F813
:1077000006464FF045FDDDE904234FF0ABFD024690
:10771000204606F130040B4629464FF0EBFB0AF8F1
:10772000014B039C02460B46AAEB0404A14540F022
:1077300082804FF0E1FB04460D46DDE9042350F062
:1077400021F8002865D120462946DDE904234FF0C1
:10775000F1FF08B1F3075CD40299584651F066FE78
:10776000002301378AF80030129B1F60219B002BF9
:107770003FF421ACC3F800A01DE400BF000024408A
:1077800000001C400000144090630E080000E03F21
:107790000000F03FA24B03EBC70393ED007B0C9B73
:1077A000002B8DED047B9FDAB9F1000F9CDC7FF498
:1077B000C3AE00229B4BDDE904014FF053FDDDE930
:1077C00000234FF0D5FF044600287FF4B5AE3E46B7
:1077D0002546B4E0DDE90A34CDE90034159B002BE1
:1077E00001DB0E2FD6DD089A012A36DC139A82B30C
:1077F00003F23343099CDDF81880069A01215846AC
:107800001A440692079A1A44079251F079FE0546E7
:1078100086E53E4653469A4613F8012D392A06D18D
:10782000039A9A42F7D13022039901360A701A78E6
:1078300001321A7038E700227B4B4FF013FD002213
:10784000002304460D464FF075FF00283FF450AF6B
:1078500082E7149BC3F13603CCE709F1FF34099B9F
:10786000A34208DBB9F1000FA3EB04040EDBDDF843
:1078700018804B46C1E7099B109AE31A0994DDF87A
:10788000188000241A444B461092B6E7069BA3EBDF
:1078900009080023B1E7029E71E5099A029970E593
:1078A000029672E5089B012B17DC009BABB9019B8C
:1078B000C3F313039BB9019B23F00046360D360535
:1078C00036B1069B012601330693079B01330793CC
:1078D000109B002B7FF470AD1096012075E50026FB
:1078E000F6E73FF486AD1C33069A1A449844069294
:1078F000079A1A4407927CE50346F4E7049B002BA1
:107900002BDC089B022B09DC27E0B9F1000F1DDC02
:10791000089B022B1ADD3E46CDF81090049B002BED
:107920007FF40CAE21460522584651F0A1FD0146D8
:1079300004460298AAF0B3FB00287FF7FFADDDF8FC
:107940000CA0312301360AF8013BFBE50D9B3E46B6
:10795000CDF81090002B7FF483AD039F2146029851
:10796000AAF054FA039B00F13009049A07F8019B2E
:10797000FB1A9A4240F3CB8000230A220299584610
:1079800051F076FD0290E9E72A6905F10C010C300F
:1079900002329200AAF013FA01223946584651F0F9
:1079A000C9FE039BA846054603F1010ADDE903234E
:1079B00013440793009B03F0010309930AF1FF337B
:1079C000214602980493AAF021FA4146069000F15C
:1079D00030090298AAF063FB2A462146074658461A
:1079E00051F014FFC268014602B3584651F01EFD23
:1079F000002F3ADA01220299584651F09BFE2146A7
:107A00000290AAF04CFB002803DC29D119F0010FE9
:107A100026D0B9F1390F1DD132E02846C1E700BFA9
:107A200090630E0800001440000024400A90029861
:107A3000AAF035FB0A990C90584651F0F7FC0C9AC5
:107A40005ABB089B53B9099B43B9B9F1390F17D0F9
:107A5000002F05DD069B03F1310901E0002F2ADA32
:107A6000DDF810A00AF8019B6EE5089B3B4304D1AA
:107A7000009B03F00103002BBCD0B9F1390F36D1C4
:107A8000049F392307F8013BBA46013F1AF8013C2D
:107A9000392B5AD001333B7056E5002F06DB089B8B
:107AA0003B4306D1009B03F0010313B9002AA1DC7C
:107AB000D6E7002AE1DC079B57460AF8019C5345AC
:107AC0002ED000230A220299584651F0D1FCA84535
:107AD00002904FF000034FF00A02414658460BD186
:107AE00051F0C6FC804605460AF1010A66E7DDF85A
:107AF00010A009F10109B5E751F0BAFC294680460A
:107B000000230A22584651F0B3FC0546ECE7049BDB
:107B10004FF00008002BCCBF1F460127039B1F44DA
:107B200001220299584651F005FE21460290AAF022
:107B3000B6FA0028A8DC02D119F0010FA4D1BA4688
:107B400017F8013D302BFAD0FEE4039BBB429BD1DA
:107B50003123039A01361370F6E4219B002B7FF446
:107B600025AA014BFFF744BA76620E080000000018
:107B7000002370B5424C05468AB0E36318B1008813
:107B8000236057F08BFC57F0F9FD3E48BEF036FD00
:107B90003D4E3E4B304633603D4B736052F0E8FF44
:107BA000002130466CF088F833A3D3E90023A062AB
:107BB000C4E90623ADF0BDFCD4E906231943104304
:107BC000C4E90601CDE900014FF0FF334FF0FF3269
:107BD000A06ABEF017FE02224FF0FF31A06ABEF08D
:107BE0002BFE012057F0DEF94FF4007300222949E3
:107BF000A06ABEF0DFFFB0F5007F39D100239422E8
:107C0000079309933C23CDE903320593962306930A
:107C10005023A06A03A908936CF0D8FC35B3287CE4
:107C200057F0BEFD0546F0B9A06ABFF0B4F957F0B1
:107C300045FE57F099F920B14FF48070002155F0BE
:107C4000DDF957F0A1F920B14FF40060002155F0A3
:107C5000D5F9ADF036FD0120BEF047FB0E4A0F49C5
:107C6000A06AADF05AFC28460AB070BDFF20D7E7E5
:107C70000725F8E7AFF300800DD50155200000007F
:107C8000E0020120690345EC6C090220DDED0508E6
:107C90007C0902206C070220C3540B0803550B0813
:107CA0000348044B834202D0034B03B1184770478B
:107CB000884202208842022000000000064B07494B
:107CC000C91A891048BF0131491003D0044B0BB1C8
:107CD00001481847704700BF8842022088420220AE
:107CE0000000000010B5064C237843B9FFF7D8FF19
:107CF000044B13B10448AFF300800123237010BD7F
:107D0000BC1102200000000030C80E0808B5054B69
:107D10001BB105490548AFF30080BDE80840FFF7F7
:107D2000CDBF00BF000000005051012030C80E0838
:107D3000A3F5803A704700BF174B002B08BF134BC9
:107D40009D46FFF7F5FF00218B460F461348144A66
:107D5000121AA9F0F1FF0E4B002B00D098470D4BE3
:107D6000002B00D098470020002104000D000D4892
:107D7000002802D00C48AFF3008051F0CBF920006E
:107D8000290007F0ABFC4FF067FF00BF00000800C0
:107D9000000000000000000008120020081200206F
:107DA000E02F0220000000000000000038B5054C64
:107DB000A4F1A005203C04F1080000F031FFAC4222
:107DC000F8D138BD085201202DE9F0412DED028B8C
:107DD00004460D460426FBEE0E8A714F88B0002241
:107DE0002146384677F02CF9B4EEE80AF1EE10FAA5
:107DF000B0EE408A0DDDDFED6B7AB4EEE70AF1EE0E
:107E000010FA06D5DFED687AB4EE670AF1EE10FAE3
:107E100006D1642078F052FF013EE0D19FED638AE5
:107E2000B4EEE88AF1EE10FA05F101050DDDDFEDA3
:107E30005D7AB4EEE78AF1EE10FA06D5DFED5A7AF4
:107E4000B4EE678AF1EE10FA7DD15949594878F0BD
:107E500016FD0A222946574878F064FD56495548D0
:107E600078F00DFD18EE100A4FF0A4F941EC100B5C
:107E70000221504878F071FD50494E4878F010FDCD
:107E800018264F4C6E434F494F4877F09CFD94F8AD
:107E90009E70012194F89D8004F1080077F018FE8F
:107EA000B6B2C7F10302013F08F1FF333244BFB25B
:107EB0009BB292B2002104F10800009777F045FAD6
:107EC000002104F1080077F003FE2A463F4903A889
:107ED00050F044FC324603AB032104F1080001F0EA
:107EE000F7F83B4904F1080077F06DFD012104F13A
:107EF000080077F0EDFDB4EEE88AF1EE10FA0DDD42
:107F0000DFED287AB4EEE78AF1EE10FA06D5DFED60
:107F1000267AB4EE678AF1EE10FA36D12D4904A81C
:107F2000A9F06CFF04A9284801F0E2F8C0F1400173
:107F3000324604AB89B2244801F0CAF808B0BDEC5F
:107F4000028BBDE8F0811A491A4878F098FC0A22A1
:107F50002946184878F0E6FC1F49164878F08FFC4F
:107F600018EE100A4FF026F941EC100B02211148CF
:107F700078F0F3FC19490F4878F092FCB0EE480A0B
:107F800004F1080000F06EFE7AE718EE100A4FF0D8
:107F900011F902460B4604A8114950F0DFFBC1E776
:107FA00008520120CDCCC7420000AA420000FEC208
:107FB000C8D60C0820590120D0D60C08E4D60C08ED
:107FC0003C52012055E90C0844520120CB510D08C8
:107FD000E4DC0C08F7D60C08ECCF0D08F2D60C0840
:107FE000FDD60C08F8B578F05BFE4FF47A73B0FB61
:107FF000F3F51E4C1E4F20461E4978F040FCB5FBA1
:10800000F7F60A223146204678F08CFC20461A49C1
:1080100078F035FC07FB16514FF461660A22B1FB7C
:10802000F6F1204678F07EFC2046144978F027FCD3
:10803000B5FBF6F106FB11513C260A22B1FBF6F125
:10804000204678F06FFC20460D4978F018FCB5FB0F
:10805000F6F1204606FB11510A2278F063FC204617
:10806000BDE8F840074978F01BBC00BF205901204B
:108070008051010003D70C080CD70C0814D70C084A
:108080001DD70C084C650D08F7B5FFF7ABFFE622CE
:1080900000241146104676F041FD6846234976F0EB
:1080A000B3FF01272646224D05F10800204476F053
:1080B000FEFFA8B301362034A02CF4D11D491E4880
:1080C00078F0DDFB0A2231461B4878F02BFC1B4977
:1080D000194878F0D4FB0A220521174878F024FCCF
:1080E00007B3FF22E621104676F018FD144877F01A
:1080F00076F90024214628460134FFF765FE052C59
:1081000005F12005F6D10E4877F074F90A4807F01A
:10811000EDF941F2883003B0BDE8F04078F0CEBD13
:108120000746C8E7FF21E6220846DDE7085201209E
:108130006851012028D70C082059012040D70C088D
:108140004452012070B50025214C224B04F1080651
:108150002360214B3046C4E92D35656077F0DDFDA5
:108160001E4B304623601E4A1E4B1F4900F092FFF3
:10817000FF231E4C1A461946304677F0DFF820469A
:10818000022176F0B0FD2146194C1A4876F028FEFF
:108190002046194976F0B5FC184904F1200076F024
:1081A000B0FC174904F1400076F0ABFC154904F12E
:1081B000600076F0A6FC144904F1800076F0A1FC82
:1081C0002846BDE87040114A1149A8F062BE00BFC0
:1081D0003C520120FCD70C080BFD070814D80C08F2
:1081E0001D90000863F2070890F40C082852012043
:1081F00068510120085201203E41022036410220F0
:108200002E410220264102201E410220BC310220C4
:10821000AD7D000830B585B0FFF7E4FE3A4877F051
:1082200067FE394877F028F90021374877F069FE72
:108230000121162078F077FD0121172078F073FDD9
:108240000121182078F06FFDFF22E620114676F01C
:1082500065FC4FF416512D4878F09CF92C4876F0C7
:1082600069FE2C4876F028FF00242B4D2819203475
:1082700000F060FCA02CF9D12849244878F010FBCC
:108280002749224878F00CFB00F03EFAC8B925498E
:108290001E4878F005FB01A800F074F9019A224904
:1082A0001A4878F097F901A878F059FB01A800F076
:1082B00017F91648019A1D4978F08CF901A878F051
:1082C0004EFB00F021FAB0B1FFF78CFE18490F48C1
:1082D00078F0E6FA00F01EFA88B1FFF783FE154940
:1082E0000A4878F0DDFAFF21E622084605B0BDE82D
:1082F000304076F013BCC82078F0E0FCE1E7C820FD
:1083000078F0DCFCE6E700BF445201202059012050
:1083100008520120BD110220705101200F110D08DB
:1083200044D70C086BD70C088DD70C08A6D70C08BF
:10833000B7D70C08D5D70C0802460144002010B569
:10834000074C8A4200D110BD12F8013B434003F0B4
:108350000F0004EB1313205C1B7C5840F1E700BFB7
:1083600024D80C0800220921C26002720280C26176
:10837000FF22C17001490283416070470101010081
:1083800009220023C270034AC16003704260037275
:10839000704700BF010101000878422810D8272843
:1083A00006D810280ED0A0F1220358425841704739
:1083B000054B2838C0B223FA00F000F001007047E6
:1083C00000207047012070470100080410F5DC5FB1
:1083D000C6BF00EE100ABAEEEC0A9FED010A704724
:1083E0000000FEC20938C0B202289ABF024B33F81F
:1083F000100040F2EE20704744D80C0810B592F9F6
:108400000100097800281E4CA8BF00243B2953789E
:1084100010781AD192F90410002914DAC1070BD58B
:108420009378D90728D49A0728D413F0040F154B52
:10843000154818BF184610BDC00000F4FC6040EAA3
:10844000C3202043F7E7C000F9E7C00040EAC3209B
:10845000102940EA0400EED1D1790029EBD09379BC
:108460000A4ACB1ADB0193FBF1F302EAC002203A7D
:10847000134443EA0400DEE70548DCE70548DAE791
:108480000000F8FF0082FFFF80E4FFFF80FF07008D
:108490000081FFFF8081FFFFF0B504460D461646C0
:1084A000002785B0FBB29E4201D208480CE0294665
:1084B000204601AA76F002FD01370028F2D02946B5
:1084C000204601AAFFF79AFF05B0F0BD80E4FFFF48
:1084D000024A026000224260704700BF88D80C0840
:1084E00070B5A6B005AB019381230646029351F007
:1084F000E7FB01A952F09CF820BB029D05EB450566
:108500004135284640F09CFCDDE901230446CDE9D5
:10851000032312B90BB1A9F026F82946204603AA75
:1085200032F0CAFC50B92146304678F060FA14B1F6
:10853000204640F0A9FC304626B070BD14B120465C
:1085400040F0A2FC3046024978F051FAF3E700BF50
:108550004AD80C0810B5A4B003AB0193812304469C
:10856000029351F0ADFB01A952F062F830B90199C4
:10857000204678F03CFA204624B010BD0049F7E7C9
:108580004AD80C082DE9F041AAB0054619A8FFF712
:10859000E1FF199C03AB019314B95948A8F060FDA1
:1085A0002046A9F019FC0F2804EB0006139007D908
:1085B000002213A901A84EF057FA139B01900393D0
:1085C0002146002432460198A8F098FD139B019A99
:1085D000029319A8D45478F0C2F91FABCDE9213326
:1085E00025ABCDE92733DDE9017315AE0F2B8DF8EF
:1085F0006440ADF866401A94ADF86E408DF8704056
:108600001D948DF87C40209423948DF894402694FA
:108610002994139607EB03080D9307D922460DA959
:1086200013A84EF021FA0D9B13901593424639463C
:108630001398A8F05EFD00210D9B139A1493D1545A
:10864000139B09A8B342079028D1149A013202D093
:108650003146A9F0B4FB149B13A80893002313968A
:1086600014938DF85430A8F00CFD19A907A84BF00D
:10867000F1FCB8B12846234978F0B9F907A8A8F069
:1086800000FD269876F0EEFC209876F0FDFC01A81F
:10869000A8F0F7FC28462AB0BDE8F0810793159BA7
:1086A0000993D8E70FABBDF86620CDE90D309DF8F2
:1086B0006430ADF84E208DF84C301A9A9DF86B302E
:1086C0008DF83C0014921BB19DF86C308DF854303D
:1086D000DDF86E300DA9CDF856301D9B13A8179309
:1086E0000023ADF86030A6F019F938B90D99284685
:1086F00078F07DF90DA8A8F0C4FCBFE70149F6E7C2
:108700004ED80C084AD80C080148A3F008BD00BF99
:10871000C0CC00200148A3F010BD00BFC0CC002099
:1087200070B506460C2014460D4640F089FB024603
:1087300020B10023C0E90154068083700249034838
:10874000BDE8704044F000BE4FF0070888DD00200F
:108750002DE9F34104460D461F2002211646134A17
:108760001F46A1F0C5FC204634F0CAFE00F0D8F93F
:10877000044618B9012002B0BDE8F081BDF8202000
:1087800003680092D3F8088029463B467268C047C8
:108790000028EFD1204676F025FD08B10020EAE759
:1087A0000121204676F020FDF8E700BF90D80C08A4
:1087B000F8B504460D461F20022116460A4A1F46F8
:1087C000A1F096FC204634F09BFE00F0A9F948B1D8
:1087D00003682946DC6872683B46A047003818BF2A
:1087E0000120F8BD0120FCE7B5D80C08F8B50D460E
:1087F000134A022107461F20A1F07AFC288834F092
:108800007FFE00F08DF9064618B176F0E9FC0446CB
:1088100040B9002301222946384676F04FFC002457
:108820002046F8BD33890E2BF3D13046002100F0ED
:10883000E5FA002329461A46384676F03FFCEFE772
:10884000DBD80C08F8B50D46144A022107461F2054
:10885000A1F04EFC288834F053FE00F061F9064682
:1088600018B176F0BDFC044640B900230122294628
:10887000384676F023FC00242046F8BD33890E2BC1
:10888000F3D1304642F2107100F0B8FA00232946C5
:108890001A46384676F012FCEEE700BF08D90C08FD
:1088A00038B504460D461F200221054AA1F020FCE0
:1088B000204600230122294676F000FC002038BD26
:1088C00038D90C0838B504460D461F200221054A48
:1088D000A1F00EFC204600230122294676F0EEFB93
:1088E000002038BD67D90C082DE9F0410D4614462B
:1088F0000221154A07461F20A1F0FAFB2888B4F888
:10890000008034F0FDFD00F00BF9064618B176F05A
:1089100067FC044648B9002301222946384676F010
:10892000CDFB00242046BDE8F08133890E2BF2D127
:108930004146304600F062FA002329461A4638467E
:1089400076F0BCFBEEE700BF99D90C0838B50446B9
:108950000D461F200221054AA1F0CAFB2046002334
:108960000122294676F0AAFB002038BDD0D90C0898
:1089700038B504460D461F200221054AA1F0B8FB78
:10898000204600230122294676F098FB002038BDBE
:1089900002DA0C0808B5002144220D48A9F0CCF9F0
:1089A00098F075FC013880B235F084F8094B01303D
:1089B00080B21880084B188098F069FC013880B2AA
:1089C00035F078F8BDE80840002135F04DBA00BF19
:1089D000F8520120200F0220220F02202DE9F04F33
:1089E00089B00793304B0546934600249946BDF85D
:1089F0004880069153F8042B002A49D12746E3B258
:108A0000DFF8B0A0294E059349F824505046A3F052
:108A10002AFEDDE90623B6F800C0A5F8AA80A5F86D
:108A2000A8C0CDF808809BE803008DE803006146EC
:108A3000059835F0AFFA034680B9019433880221D6
:108A400000931F201A4A05F11003A1F051FB1948A9
:108A5000A3F00EFE384609B0BDE8F08F7F280AD09B
:108A60000022022149F824201F20134AA1F040FBD4
:108A70004FF0FF37EBE73388104A013312889BB27F
:108A8000934238BF134650463380A3F0F1FDBDE753
:108A90000134102CAED102211F20094AA1F028FB7D
:108AA0004FF0FF37D6E700BFF8520120220F022017
:108AB00039DA0C0888DD00206BDA0C08200F022060
:108AC00097DA0C08134B73B5054600241E4653F87D
:108AD000042BAA4217D11048A3F0C5FDE0B235F02F
:108AE00039FA0023022146F824300C4ACDE900046B
:108AF00005F110031F20A1F0FBFA0748A3F0B8FD11
:108B0000204602B070BD0134102CE0D14FF0FF348C
:108B1000F6E700BFF852012088DD0020CFDA0C080C
:108B20000F289ABF024B53F820000020704700BF67
:108B3000F85201202DE9F041077D064686B0F7B9CD
:108B4000B8202A49A8F0AAF90446C0B142F210732D
:108B5000274A2849009700F011F90121204600F02A
:108B6000E1F92046234900F0F9F9082074604FF03C
:108B7000D1FB054638B9236820465B68984700203A
:108B800006B0BDE8F0811C4BC7800360032303716E
:108B90000C204FF0BFFB804638B9236820465B6845
:108BA000984728464FF0BEFBE9E7144B0127029394
:108BB0000C23CDE90370059329462046009704ABAA
:108BC00002AAFFF70BFF002808DA236820465B683B
:108BD000984728464FF0A6FB4046E3E73846C6E9EB
:108BE0000245C6F810803775CAE700BFD4560E0894
:108BF00060F0FFFF05DB0C085C32022028DB0C086C
:108C000010B50446FFF764FC044B204623600023A4
:108C1000C4E902332361237510BD00BF20DB0C08BB
:108C200010B50446044B036076F083FA204676F0D4
:108C30003DFA204610BD00BF20DB0C0838B5037D8F
:108C400004460D465BB10648A3F00DFDA068294619
:108C500000F0AAF8BDE838400148A3F009BD38BDCE
:108C600088DD0020DFED057A20EE270ABDEEC00A80
:108C700010EE103A19B2FFF7E1BF00BF0000C84282
:108C800073B50D46044690F8B16000F110030091F1
:108C90001F2002210A4AA1F02BFAAE4284F8B150FB
:108CA0000CD0B4F8A800002240F20111FFF738FD03
:108CB000204602B0BDE8704076F098BA02B070BDB0
:108CC00030DB0C082DE9F3411D4643790646884602
:108CD0001446BDF82070002B40D00B4600920221B4
:108CE0001F201F4AA1F004FAB8F1390F09D12B4611
:108CF000224641463046009700F0ACF802B0BDE88D
:108D0000F08140F20243984526D12CB9022F23D19D
:108D1000B6F8B6302B8015E0012C04D1022F1BD100
:108D2000B6F8B230F6E7022C04D1022F14D1B6F80F
:108D3000B430EFE74FF6FC739C4205D1042F0BD102
:108D400000232B600020D9E74FF6FD739C4203D12E
:108D5000022F01D10123DDE72F20CFE7AC20CDE7A3
:108D600058DB0C0810B50446034B40F8903BA8F0C4
:108D700088F9204610BD00BFD4DC0C0870B504464D
:108D80001D46164600F00CF9064BA4F8B2602360AD
:108D9000BDF91030A4F8B450A4F8B6300C232381E8
:108DA000204670BDC4DB0C0873B5B0F9B250044660
:108DB0008D4204DCB0F9B4508D42A8BF0D46B4F921
:108DC000B66002211F200C4A009504F11003A1F0A7
:108DD0008FF9AE42A4F8B6500CD0B4F8A800002227
:108DE00040F20241FFF79CFC204602B0BDE8704013
:108DF00076F0FCB902B070BD90DB0C0842F2107343
:108E0000994237B528BF194604460D4600F11003B4
:108E1000094A00911F200221A1F06AF920464FF46F
:108E20008071A4F8B45076F0A3F9204603B0BDE8F1
:108E3000304076F0DBB900BFD4DB0C0810B5044637
:108E4000034B40F8903BA8F01CF9204610BD00BF32
:108E5000D4DC0C082DE9F0411C4643798AB0074662
:108E600088461646BDF840501BB9AC200AB0BDE894
:108E7000F0810B46CDE9002502211F20284AA1F0F0
:108E800037F9B8F1390FF0D1112E05D1012DECD100
:108E90007B7923700020E9E7052E0CD1202DE4D149
:108EA000CDE902450CB9A8F05EFB07F1100102A85C
:108EB000A1F067FAEEE7012E09D1202DD5D1CDE939
:108EC0000445002CEFD007F1300104A8F0E7032E91
:108ED00009D1202DC9D1CDE90645002CE3D007F1F9
:108EE000500106A8E4E70F2E09D1202DBDD1CDE910
:108EF0000845002CD7D007F1700108A8D8E74FF635
:108F0000FD739E4203D1022DAFD12580C2E74FF6FB
:108F1000FC739E42A9D1042DA7D100232360B9E799
:108F20000ADC0C0810B5437904468B4210D041711D
:108F300000F1100351B1074A02211F20A1F0D8F817
:108F40002046BDE81040012176F055B9024AF3E70A
:108F500010BD00BF5EDC0C0871DC0C0873B500F1BD
:108F600050060446202230460D46A8F072FE90B10D
:108F70000A4A04F1100302211F200095A1F0B8F85D
:108F80002946304676F065F91021204602B0BDE84A
:108F9000704076F030B902B070BD00BF85DC0C08BF
:108FA000194B70B5002503604FF6FF7304460E465B
:108FB000164A4571857103818572C56098301146E6
:108FC000C4F89000A8F09AF8D4F890303146C4F86C
:108FD000945004F110001D70A4F8A850C4F8AC50CF
:108FE00076F037F904F13000094976F032F904F1EE
:108FF0005000084976F02DF904F17000064976F02A
:1090000028F9204670BD00BFD4DC0C080F110D08F4
:10901000A6DC0C08B3DC0C08C1DC0C0810B5044657
:109020000846143819460C2828D8DFE800F00C2729
:10903000270717222727272727270A00104877F016
:109040001BF8012010BDA36923B923680D4A5B7B7F
:109050005343A3610A4877F02CF8F2E7A169084866
:1090600077F030F894F824100548490876F0F1FFBD
:10907000E7E70121024877F0DEF8E2E70020E1E7C8
:10908000A4540120A0860100082303700048704703
:10909000BE11022030B585B00D4600930949134634
:1090A000094A044676F048FF0DF10F00FFF7ECFF88
:1090B000064B01469DF80F202046009576F004FEF1
:1090C00005B030BD959200080D9100082BFB0708F4
:1090D00010B4034C44605DF8044B76F012BC00BF42
:1090E0000BFD0708014B4367704700BF9FF407085B
:1090F000014B436076F09FBB0BFD0708024A836C6F
:10910000C0E91A225B6818470000FFFF14392DE9F7
:10911000F041044615461E4605294ED8DFE801F009
:109120003303181C4145264E33780BB176F016FEFA
:10913000204676F00AFE0021204676F0FBFD294607
:10914000204676F0F7FD012333700120BDE8F08161
:10915000114676F0EFFDF8E7194F3B780BB176F04A
:10916000FDFD182D324606D82946204676F0FFFD33
:1091700000233B70E9E718212046183D76F0F7FD03
:10918000EDB21836EDE790F824300769FF2B04BFE5
:10919000782380F82430BC463346BDE8F0411421E2
:1091A00060470022064B1A70CFE7054D2B780BB1B4
:1091B00076F0D4FD00232B70C7E70020C6E700BF80
:1091C000BE1502200B39F8B5044615461E46042983
:1091D00055D8DFE801F003540C1B29002AB92949AE
:1091E000204676F006FE0120F8BD2749F8E73AB997
:1091F000264976F0FEFD23689B7C84F82230F2E756
:10920000234976F0F6FD2368DB7CF6E776F0DFFD98
:109210008121204676F0C0FD2946204676F0C5FD26
:10922000204676F0DDFDDEE776F0D1FD737994F827
:109230002270402107EBC30707F0FF07204676F0B6
:10924000ABFD390941F01001204676F0A5FD07F08D
:109250000F01204676F0A9FDB179204641F0B0011A
:1092600076F0A3FD31792046C900326801F0F8019B
:10927000013D76F0A3FD15F0FF05F3D1D0E7002006
:10928000B2E700BFC7F40C08C2F40C08BBF40C082A
:10929000B4F40C0838B504460D46FFF793FF50B9F7
:1092A000092D0AD00A2D07D1204676F0D8FD204698
:1092B000044976F09EFD012038BD2046024976F033
:1092C000C9FDF8E7CCF40C089CF40C080023FF213E
:1092D000094A0360C0E90222C0E9042280F8233071
:1092E00080F82630836180F8241080F82810162238
:1092F0002C30A8F021BD00BF35FF0708F0B5067C73
:10930000044685B0002E78D102236D4603743C4B91
:1093100080F8A4100FCB85E80F0001230B22D4F8AE
:10932000581194F855018DF801600BF0DFF9012315
:109330000B22D4F8601194F85C010BF0D7F994F883
:109340005431D4F860011B0103F1A04303F57033DD
:10935000D3F8F01494F85C212A4E42EA00423140DE
:109360000A43C3F8F02494F85411274AD4F85871EA
:1093700002EB0111D1F8EC0494F85531304043EA86
:1093800007430343C1F8EC3494F85431012102EB54
:1093900003120323C2F8E834D4F850011B4B98425F
:1093A0000CBF2F202E200AF02DF82946D4F85001AA
:1093B0000BF018FA94F8A430D4F8502103F0FE030F
:1093C000D361D4F85031124A03F50053DA63D4F86C
:1093D0005031104A03F580531A64D4F85031B3F178
:1093E000B64F02D11B200FF07BFDD4F85021074B64
:1093F0009A4202D11C200FF073FD05B0F0BD00BFF2
:109400007CF50C08FCFFF0FF00C003500080065004
:10941000FFFF1F00640601002DE9F04100251E46F4
:109420004FF47A73044688461746C0E90153264B29
:10943000402203602946C0E926550582A0F89450D1
:1094400080F89650C0F8A050A0F8A450A830A8F01A
:1094500073FC069BC4F8E850C4F858319DF81C30E2
:10946000402284F85C31089B2946C4F86031099B8E
:10947000C4F8EC50C4F86431C4E93D55C4F8F05068
:10948000C4F8FC50C4F8508184F8547184F85561D4
:1094900004F15300A8F050FC4022294604F11300C7
:1094A000A8F04AFC012004F58071C4F072F8C4F8F9
:1094B000FC0030B9C3F079FF044905484FF04CFB7C
:1094C000FEE72046BDE8F08134F50C0801F50C08F4
:1094D00012F50C0808B50948D0F85031B3F1B64F71
:1094E00001D176F0D4FE0648D0F85031B3F1B64F32
:1094F00003D1BDE8084076F0CABE08BDA4540120DF
:109500003C53012010B50948094CD0F85031A34212
:1095100001D176F0BCFE0748D0F85031A34203D108
:10952000BDE8104076F0B3BE10BD00BFA4540120CA
:10953000008006503C5301201FB50F4B07241B68C9
:109540000622039300234FF0B641CDE90132009487
:109550001A460A48FFF760FF094B08221B680949B1
:10956000CDE9024302230848CDE900230122FFF799
:1095700053FF04B010BD00BF08330220A4540120E3
:1095800004330220008006503C53012038B50446C5
:109590001348144D20600020C4E904122071A081FA
:1095A000A5600120A36104F12001C3F0F2FFE06196
:1095B00030B9C3F0FAFE0C490C484FF0CDFAFEE783
:1095C000012004F17401C3F0E4FF206730B9C3F057
:1095D000ECFE074905484FF0BFFAFEE7204638BDCC
:1095E000C4F50C0840420F008CF50C0812F50C086D
:1095F000A5F50C0813460A460146014876F060BFFF
:10960000D056012013460A460146014876F058BF5D
:109610000C56012070B50F490F4C104E104D114BD8
:109620002046114A0968FFF7B1FF32462946204615
:10963000A7F02FFC0D4C0E4920460E4A09680E4B30
:10964000FFF7A4FF324629462046BDE87040A7F048
:1096500020BC00BF3C350220D0560120BC31022086
:109660009D030808F59500082C3302200C560120B4
:10967000383502200C3302200596000800230246EC
:10968000194601480BF032BC00C0055010B500244B
:109690000E4B186876F026FF0D4B0122C3F82047C9
:1096A0000421C3F838470220C3F83047C3F82847DD
:1096B000C3F82C4723460BF019F82346BDE81040A9
:1096C0000122052102200BF011B800BF9C57012098
:1096D00000C003500246002101480AF09FBD00BFB0
:1096E0000000015B10B500240E4B186876F0FAFEFE
:1096F0000D4B2046C3F894440122C3F8AC44042126
:10970000C3F8A444C3F89C44C3F8A04423460AF019
:10971000EDFF23462046BDE81040012205210AF056
:10972000E5BF00BF9457012000C00350084B1A68E2
:10973000084B1A60084B1A68084B1A60084B1A68E5
:10974000084B1A60084B1A68084B1A60704700BF34
:1097500024350220A0570120343502209C570120D7
:1097600010350220985701202035022094570120FF
:109770000348044B044A05490360A7F08ABB00BFB5
:10978000A457012000F60C08BC3102200D05080882
:109790004B88042B07D1836C08885B8998428CBF67
:1097A0000020012070470020704720B9064B1B683D
:1097B00033B9184607E00368002BF7D05B68F7E77A
:1097C000986C0028FAD070470812002068B13F2931
:1097D0000AD800EBA10090F8310001F00301490024
:1097E000084100F00300704700207047037A23B15E
:1097F000013B012B06D900207047C368188802304E
:1098000080B27047C36858880630F9E70E4B10B530
:109810005968CC0714D4DA8A9C8A944210D9490733
:109820001C6948BF996A24F81200DA8A4ABFC889BD
:109830001046801802F1010248BF80B2DA8210BDE2
:109840004FF6FF70FBE700BF0812002070B5124C06
:109850000146636813F0040305D00022A56AEB8972
:1098600090B2834208D80022E46AE58990B285422A
:1098700009D84FF6FF7005E0AE6836F81260013285
:109880008E42EDD170BDA66836F8126001328E426C
:10989000ECD1034498B2F5E708120020084B5A684F
:1098A000520709D5996ACA89824203D98B6833F86D
:1098B00010007047801A80B2DB6A9B68F7E700BF30
:1098C0000812002010B50446FFF7C0FF4FF6FF73E3
:1098D000984203D12046BDE8104097E710BD0D4ADD
:1098E000F0B50146D4899068002300EB04100646C9
:1098F0000B27158E05EB030C01339BB28B42A6F8A8
:1099000000C0777206F11006F4D30D440C4415869E
:10991000D481F0BD08120020437ADA0702D5C3F3E0
:1099200080007047034BC2885B8E1A4214BF01202F
:109930000020704708120020094B5A68D20707D54B
:1099400060B1DB6ADB88834234BF002001207047AE
:1099500020B11B8E834294BF00200120704700BFBE
:109960000812002070B50146FFF7E6FFE8B10F4B83
:10997000DA6AD5888D4209D301F180501368013825
:10998000040103EB00101B5B8B420ED0002398B246
:10999000854201D8002008E016681C01345B06EB04
:1099A00003108C4203F10103F1D170BD08120020B5
:1099B00008B5FFF7D7FF08B1FFF7AEFFC0B208BD8B
:1099C00008B5FFF7CFFF18B1007AC31F58425841BE
:1099D00008BD884270B504460D46164611D80128C8
:1099E00038BF01242046FFF7BDFF10B14388B342C2
:1099F00008D00134A4B22046FFF79EFF20B1A54253
:109A0000F0D20024204670BD0446FBE74B88052BAE
:109A100005D108880E288CBF002001207047002047
:109A2000704700207047002070477047054A034682
:109A3000106800B97047B0F86E209A42FAD04068BA
:109A4000F7E700BF08120020054A0346106800B976
:109A5000704790F870209A42FAD04068F7E700BF4C
:109A600008120020034B93F83420034B53F82230A4
:109A7000184700BF0812002018F60C0810B504465D
:109A800050B90120FFF7EEFF0122044B204683F876
:109A90003420BDE81040E5E710BD00BF08120020EB
:109AA00010B5411D441E002014F8013F5A0802F071
:109AB00055029B1A03F03302C3F3850303F033030B
:109AC000134403EB131303F00F03A1421844EBD12B
:109AD00010BD7047704770477047704770477047B8
:109AE0007047704770477047084A034692F88210E3
:109AF000814209D9906D40B103EBC30300EBC30071
:109B0000406A00F0010070470020704708120020F2
:109B100038B504460D46FFF7E7FF034640B1002085
:109B2000044B04EBC4049B6D03EBC4032B6038BDF2
:109B30002120FBE70812002037B5044648B104781D
:109B40002046FFF7D1FF10B9002003B030BD01342B
:109B5000E4B2074D95F88230A342F5D9204601A919
:109B6000FFF7D6FF08B90198EFE70134E4B2F1E757
:109B70000812002000207047030400D48EE6002065
:109B8000704701302DE9F04185B228460E46FFF7B7
:109B9000E9FE42F60217044642F603081CB12046CD
:109BA000FFF7BAFE10B94FF0FF3008E06088FFF70A
:109BB000E3FFB84205D10EB123883380607BBDE856
:109BC000F0814045EFD00135ADB22846FFF7CAFE1F
:109BD0000446E3E72DE9F04707460E4690460D465A
:109BE00042F6021942F6030A0135ADB22846FFF7E4
:109BF000B9FE044678B1FFF78FFE60B16088FFF7C9
:109C0000BBFF484505D1237A072B04D10320BDE8CB
:109C1000F0875045E8D141463046FFF7B2FF431C7C
:109C2000014603D03846BDE8F047CFE50020EEE717
:109C30002DE9F0410E46154642F603080130A2F523
:109C4000205784B2BFB22046FFF78CFE18B9013C02
:109C5000A0B2BDE8F0814088FFF78EFF45450CD1EA
:109C6000A842F4D00134A4B22046FFF765FE08B143
:109C7000B442E8D94FF6FF70EBE7012FF2D8A0F518
:109C8000205080B20128EDD8E1E708B5FFF774FF56
:109C9000A0F5205080B201288CBF0020012008BD13
:109CA00090F87430DB0706D490F97530013314BF97
:109CB0000F20052070470020704770B50546084604
:109CC0001446FFF74FFE0146002859D0FFF724FE47
:109CD000002855D0E60710D58A88D00752D512F053
:109CE000700F02F020062DD1002E30D1560604D57B
:109CF0002B6893F97530013348D0A00702D58B88C3
:109D00009A0741D5630702D58B885E073CD514F0CE
:109D1000060F0DD08A8812F4E06F02F4007620D18D
:109D20002EBB530504D52B6893F9753001332DD024
:109D300014F4006014D08B8813F4006F14BF00205B
:109D400006200DE02868FFF7ABFF3EB140B92B6855
:109D500093F874309B07C9D4052001E00028C5D0D2
:109D600070BD2868FFF79CFF3EB10028F8D12B6832
:109D700093F874309807D4D4EEE70028F0D1D0E7F8
:109D80000120EDE70220EBE70320E9E70820E7E701
:109D90002DE9F341D0F80160D0F80550B0F8097012
:109DA00090F80B8001A90078FFF7B2FE0446E8B9ED
:109DB000019B5A6A91050BD44FF6DF71A6F1200082
:109DC00088421AD8A5F12000884216D8AE4214D88D
:109DD000D9698E4202D1196A8D4204D0C3E9076560
:109DE00042F002025A6283F830809F85044856F0A0
:109DF000C5F9848002B0BDE8F0812124F6E700BFF8
:109E00002002040313B5007801A9FFF781FE044680
:109E1000B8B9019A536A13F0100418D1590410D537
:109E20000C4923F48043D1F8670043F00803C2F8DB
:109E30000100B1F86B0091F86D10A2F80500D17126
:109E40005362054856F09AF9848002B010BD02248E
:109E5000F7E700BF081200202002041110B50C46DD
:109E600001041BD5114BC0F30E005A68520712D5DE
:109E7000996ACA8A90420CD20B6903EB001000F178
:109E8000100350F8042B984244F8042BF9D1102009
:109E900010BD801A80B2DB6A1B69EEE7FFF7FEFC9B
:109EA0002070000A60700220F2E700BF0812002054
:109EB00070B5164600221A7032800A7A0D46072ABB
:109EC00056D8DFE802F0040A0E121A1E3353EC686B
:109ED00034F8022B3280204670BDEA68941D528807
:109EE000F8E7EA68941D9288F4E7697BFFF76EFC57
:109EF000204C022224F8A80FECE702231E4C3380EA
:109F0000E9E71C4C2B7B04F1AD0184F8AA302B88C7
:109F1000E889013384F8AB302B88AA3401331B1253
:109F2000A370FFF79BFF03303080D4E7114CA88962
:109F3000EB89020A84F8BF301B0A84F8BD0084F85C
:109F4000BE2084F8C030FFF70DFD68B1C3681A88E1
:109F5000022A09D19A7884F8C120DB7884F8C230CB
:109F60000623064C3380B6E70423FAE780221A70F2
:109F70000024B0E70812002020F60C08C5120020CB
:109F80000B68FF2A03608B88838002D107238371CB
:109F90007047032A0AD8064B1A44D27A072A8271DC
:109FA000F6D1427903EB9213DB7BF0E70023EEE777
:109FB00018F60C0837B5044668464A790D4606314E
:109FC000FFF7DEFF03C8A4F85010090C11F0800F52
:109FD000E06484F8521004F1530312D001221846B1
:109FE00005F11201FFF7CCFF0C352846FFF758FDAD
:109FF00080B10122294604F15A0003B0BDE8304087
:10A00000BEE7B4F8501094F85220C4F85300998079
:10A010009A71E9E703B030BD8378132B02D108466B
:10A02000BDF072BD704770B506460D4614467AB94C
:10A030000A4620460821BDF011FF044690B92A4681
:10A0400008212920BDF00AFF044658B9204670BDFA
:10A050001046BDF059FD2046BDF086FE08231D4484
:10A06000A371E571A3790C331C442670EEE72DE94A
:10A07000F0411646069A074688461D46FFF7D3FF6D
:10A080000446F0B114382A4631460690BDF023FF4D
:10A09000854217D9069B06A81C7904F02004BDF060
:10A0A00033FD74B9424608212920BDF0D7FE2A4667
:10A0B00031460690BDF00FFF854206D906A8BDF0D7
:10A0C00023FD00242046BDE8F081069A93790C33E5
:10A0D000D418D754F6E71FB550F80C4BADF80A303A
:10A0E00094F87040069BADF806108DF8082040F2F9
:10A0F000035101AA8DF804400393BDF03AFC10B956
:10A1000006A8BDF001FD04B010BD1FB550F80C4B02
:10A11000ADF80A3094F87040BDF81830ADF806106C
:10A120008DF8082040F2045101AA8DF80440ADF8E2
:10A130000C30BDF01EFC04B010BD1FB590F870309F
:10A1400040F203118DF8043090F8743003F00B03E3
:10A15000013BDBB20A2B8FBF00230C4A9B18DB7C30
:10A1600001AA8DF80C30B0F86230ADF80630B0F8C6
:10A170006430ADF80A30B0F866300548ADF8083004
:10A18000BDF0F7FB05B05DF804FB00BF18F60C0846
:10A19000CC12002007B5837801916A460821044853
:10A1A0008DF80030BDF0E5FB03B05DF804FB00BFA7
:10A1B000CC1200201FB590F87420044602F0010371
:10A1C00001908DF808300BB102F002038DF80930D0
:10A1D00094F87530039101AA4FF4017120468DF86F
:10A1E0000A30BDF0C6FB2046FFF7A7FF04B010BD44
:10A1F000F8B5214C0746B4F8CC60B4F8CE30F31A69
:10A20000834221DAB0F5FA7F2CBF361806F5FA76CC
:10A21000B6B2304674F0CCFB0546E8B1D4F8C810AD
:10A22000B4F8CE20A7F0CBFDD4F8C800A368E1892C
:10A23000A5EB000C03EB01118B420FD1BDF0D4FE56
:10A24000C4F8C850A4F8CC60B4F8CE30D4F8C850E4
:10A250001D443B44A4F8CE302846F8BD5A7A9207F4
:10A2600004D51A7A22B1013A012A01D91033E3E761
:10A27000DA686244DA60F9E7081200202DE9F0415B
:10A28000254C8846A58AE38A1646EB1A834213DAE0
:10A290000A35ADB2680074F08BFB074610B9002098
:10A2A000BDE8F081E28A21695200A7F088FD2069AB
:10A2B000BDF09AFE2761A582A58BE38BEB1A43457F
:10A2C00011DA0A35ADB2280174F072FB0746002896
:10A2D000E5D0E28BA1691201A7F071FDA069BDF084
:10A2E00083FEA761A583A589E389EB1AB34211DA3E
:10A2F0001435ADB2280174F05BFB06460028CED0C1
:10A30000E289A1681201A7F05AFDA068BDF06CFEB9
:10A31000A660A5810120C3E70812002010B50F4CEC
:10A32000D4F8C80030B1BDF05FFE0023C4F8C830D7
:10A33000A4F8CC30A06818B1BDF056FE0023A3608D
:10A34000206918B1BDF050FE00232361A06918B147
:10A35000BDF04AFE0023A36110BD00BF081200201B
:10A3600038B5046805460C2220460849A7F0BAFC17
:10A3700050B90222064904F10E00A7F0B3FC18B947
:10A3800002200C342C6038BD1020FCE736F60C0897
:10A3900044F60C082DE9F743102801910BD0022850
:10A3A00004D04FF6FF7003B0BDE8F083019B18881E
:10A3B000FFF74CFAF7E701A8FFF7D2FF0228F5D024
:10A3C0001028EED1DFF86C80019FD8F8046016F0F9
:10A3D000040607D00024D8F82890B9F81660A5B272
:10A3E000AE4219D80025D8F82C80B8F81690ACB237
:10A3F0004C45D6D2D8F81000102200EB0510394693
:10A40000A7F070FC01350028F1D1A0196FEA404097
:10A410006FEA504080B2C6E7D9F81000102200EB76
:10A4200004103946A7F05EFC01340028D7D145F46A
:10A430000040B8E70812002007B5ADF8040001A9F4
:10A440000220FFF7A7FF4FF6FF718842024605D0B2
:10A45000012003B05DF804EBFFF7BBBA002003B0A6
:10A460005DF804FB2DE9F0474FF00009044683F83E
:10A4700000900846A2F80090884616461D46FFF751
:10A4800071FA074618B1A4B1FFF746FA20B90123C3
:10A4900000202B70BDE8F08742F62930FFF7CCFF93
:10A4A000804506D1012385F8009004F12000338017
:10A4B000F0E72B46324639462046BDE8F047F7E440
:10A4C00010B50D49837991F86D400C4A04F00704EA
:10A4D00003F007031344224493F82E4092F82E30E1
:10A4E0009C4207D106226731A7F0FCFBB0FA80F04E
:10A4F000400910BD0020FCE70812002018F60C08E7
:10A50000F8B51C4E044632460D4652F8D03F63B3B0
:10A5100093F87D10586811F0040128D110608C2246
:10A52000184693F87070A7F007FC034680F8707027
:10A530002268C0F85A20A288A0F85E20A27980F88C
:10A5400060202868D864AA79A98883F85220FF225D
:10A5500083F8752083F8762040F6FF72A3F86E200A
:10A560003268A3F850105A6033601846F8BD1A1DBF
:10A570000346CCE70812002038B505464FF4FA70C0
:10A5800074F016FA144CC4F8C800E0B14FF4FA7332
:10A590002022002104F10800C4F8CC30A7F0CCFB45
:10A5A000280174F005FAA060142074F001FA20610B
:10A5B000A02074F0FDF9A368A06113B1236903B171
:10A5C00018B9FFF7ABFE002038BD0A23A581A3828E
:10A5D000A38304F10800F7E7081200202DE9FF41EA
:10A5E00045780446FE2D6DD10025D0F80200E388A1
:10A5F0000290ADF80C30464B1D4495F83620D1063C
:10A600008DF80E2009D59DF80D1003EB9113DB7B1F
:10A6100093421CBF00238DF80E304FF0FF339DF89E
:10A620000E100093ADF80430CB0609D53F23532913
:10A630008DF8053002BF0023ADF800308DF80230F0
:10A64000002302AFEE4618461E463D461EF8012B7B
:10A6500017F801CB013602EA0C08062E22EA0C029A
:10A6600040EA080043EA0203F0D1002845D0002B5D
:10A6700043D011F0180F40D020786946FFF748FA10
:10A68000044698B9009A536A13F0100437D102981F
:10A6900023F40043A979C2F8010043F48043A88859
:10A6A00043F00803A2F80500D1715362194855F030
:10A6B00065FD03468480BDF80C2002985A81C3F8DA
:10A6C00006000CE075B9134855F058FD212345717B
:10A6D0000371D4F80230C0F80630E388438104B037
:10A6E000BDE8F081022D0CD0D0F80200E388052DE2
:10A6F0000290ADF80C307FF67EAF212402E00224F8
:10A70000D4E70F2400230293CDF80B30CEE700BF2F
:10A7100018F60C082008041070B50446084BDB6AD4
:10A72000DA881D6805EB021526461034AC4204D0C9
:10A730006088FFF7AAFA0028F6D0304670BD00BF47
:10A740000812002008B552F08BF983790C331844B5
:10A7500008BD08B5FFF7F6FF407940F4805008BD0A
:10A7600038B50C46054652F075F94379C47523F0A7
:10A77000030343F00303437109230C348371C47151
:10A78000A0F81550153038BDF8B507460E4642F210
:10A7900013000E2115461C46FFF7E2FFB7F86E3096
:10A7A000A0F80560A0F80330BDF81830A0F80750F5
:10A7B000A0F80B30BDF81C30A0F80940A0F80D300F
:10A7C000BDF82030A0F80F30064852F06BF9FFF7C3
:10A7D000B9FF807820B1FFF7B5FF807840F4805052
:10A7E000F8BD00BF85420B0838B590F872300446BA
:10A7F000032B0D460CD1002142F20E00FFF7B0FFF3
:10A80000114852F04FF90123002084F8723018E00B
:10A81000012B17D9032140F20640FFF7A1FFB4F83E
:10A820006E304571A0F80330084852F03BF9FFF74D
:10A8300089FF8378002BE6D0FFF784FF807840F40F
:10A84000805038BD0220FCE7F9420B080D420B088E
:10A8500010B50078FFF7F8F840B11321FFF7C4FFF7
:10A860000446034855F08AFC848010BD2524F8E78F
:10A8700020020605F8B5002305460127204E34685E
:10A8800086F8D830002C38D094F872305DB30125AA
:10A890001C4E1D4F032B0AD1002142F20E00FFF780
:10A8A0005FFF384652F0FEF884F8725000E023B99A
:10A8B000646814B394F87230ECE702214FF6044058
:10A8C000FFF74EFFB4F86E30A0F80330304652F078
:10A8D000E9F8FFF737FF4379002BE5D0FFF732FFA8
:10A8E000E6E794F872304BB12046132186F8D87011
:10A8F000FFF77AFF6468002CF3D1F8BD6468C1E704
:10A900000812002043420B08F9420B082DE9F04FD2
:10A910000446504A8BB0D06B116C07AB03C3506C2C
:10A920000AAA1860E37B94F82E7002EB430333F815
:10A930000C5C636A94F82F60DA047AD401263746F7
:10A9400045F01005C3F3404B5B0394F8313048BF2A
:10A950004BF0020B0193A37B012F83F00803C3F399
:10A96000C003029304F10803039394F9323094F87E
:10A9700000A0ADB20493D4E9079805D0022F03D00C
:10A98000042F14BF00270327012E05D0022E03D069
:10A99000042E14BF00260326504606A9FFF7B8F878
:10A9A000002854D1069B5B6AC3F3C023192142F2ED
:10A9B00036000593FFF7D4FE4FEA1921C1714FEA23
:10A9C0001821817201210022019B80F806900373F7
:10A9D000029B80F809804FEA19494FEA18488373AF
:10A9E00080F803A0858080F8089080F80B80417380
:10A9F000A168039BC0F80F109988049BA0F813105E
:10AA00008375059B0276C37680F815B0C7754676C8
:10AA100080F81AA0104852F045F8FFF793FE4079ED
:10AA200020B1FFF78FFE407940F480500BB0BDE8B5
:10AA3000F08FA26A900648BF45F02005510648BF36
:10AA400045F04005DA0348BF45F004057AE70023E6
:10AA5000ACE700BF18F60C0871CB050838B5002329
:10AA6000154991F88240886DA34202DBFF251A2424
:10AA700019E0426AD5071CD490F839506D0718D4F4
:10AA8000DDB2034603F8015BD1F867100B4CC0F848
:10AA90000110A18842F009029980A179997142625E
:10AAA000FFF734FF0446064855F068FB8480857143
:10AAB00038BD01334830D7E7081200206F1200205C
:10AAC00020030401F8B506460F4642F2390006217C
:10AAD00014461D46FFF744FE01238471240A0371C6
:10AAE000C7704671C4710572054851F0DBFFFFF76E
:10AAF00029FE407910B1BDE8F8402AE6F8BD00BF54
:10AB000005410B0838B5204DEB6D5A0721D595F856
:10AB1000832005F1600305F16704012A08BF1C4684
:10AB2000A37906211B071AD54FF62840FFF718FE18
:10AB30002368C0F80330A388A0F80730134851F009
:10AB4000B1FFFFF7FFFD437923B9EB6D23F0040359
:10AB5000EB6538BDFFF7FDFD0028FAD1F5E742F2BD
:10AB60000500FFF7FDFD2368C0F80330A388A0F8B7
:10AB70000730074851F096FFFFF7E4FD4379002BBB
:10AB8000E3D0FFF7E6FDE7E7081200200DCB05084C
:10AB9000D73F0B08F7B5074608460C46BDF020F82E
:10ABA000064651F057FF4279234622F0030242F055
:10ABB0000302427141F20902043600F11505A0F8C2
:10ABC0001570C6750190C28033B901A82146BDF049
:10ABD00012F8284603B0F0BD5A7922F0030242F081
:10ABE00002025A711B68EFE710B5044642F23700C3
:10ABF000FFF7D0FF032303710023C47043718371F7
:10AC0000054851F04FFFFFF79DFD407910B1BDE8B9
:10AC100010409EE510BD00BF6D400B0810B5044606
:10AC200042F23800FFF7B6FF032303710023C4701C
:10AC300043718371054851F035FFFFF783FD40797B
:10AC400010B1BDE8104084E510BD00BFB9400B084D
:10AC5000436A70B55A07044605D5002300781A46A2
:10AC60001946FFF72FFF636A9B0706D52046FFF7BB
:10AC70004DFE636A23F002036362636A1E074ED5CA
:10AC8000E679052116F0080625782FD04FF61940F1
:10AC9000FFF766FD0023012243718371C3710271C6
:10ACA000C570464851F0FEFEFFF74CFD4379C3B92D
:10ACB000072142F23500FFF753FDC570D4F801308B
:10ACC0004360B4F8053003813D4851F0EBFEFFF7D7
:10ACD00039FD4379FBB1FFF735FD407940F48050F1
:10ACE00003E0FFF736FD0028E2D070BD4FF61A40B2
:10ACF000FFF736FD0123C570037146718671C67179
:10AD0000304851F0CFFEFFF71DFD4379002BCFD027
:10AD1000FFF71FFDE7E7636A23F008036362636AD6
:10AD2000DD0601D40020E0E713F480551DD0616AF0
:10AD30004807F7D5E37BA28D012B04D1002A3BD035
:10AD4000802A28BF802211F0400F94F830304FF055
:10AD5000010118BF01232078FFF7B4FE0028C4D1F9
:10AD6000636A23F004036362DCE71906E27B13D411
:10AD7000E37B626A023B012BD9D8D305D7D5616941
:10AD80002078FFF74BFF00236361636A23F480732D
:10AD900063620028CBD0A8E702F0FB03012BC6D0EA
:10ADA00021692078FFF720FF636A256123F0800383
:10ADB00063620028DCD098E74022C4E7773F0B08A5
:10ADC00079410B08A73F0B08F7B5857804461F2D7E
:10ADD00047D8077801A93846FEF79AFE28B9019BA3
:10ADE0005B6ADA0601D5DB043DD400216678009168
:10ADF00075B9384601A9FEF78BFE044690B1684646
:10AE0000BCF082FE194855F0B9F9848003B0F0BD5A
:10AE10002B460846E21CBDF08BF800900028E8D1D4
:10AE20001A24EFE7DDE9004596B905F11000BCF002
:10AE30006BFE2C616C6A44F0800400236C6214F099
:10AE400010040093DBD02846FFF702FF0446D6E744
:10AE500005F11400BCF058FE6C616C6A44F4807417
:10AE6000EBE72124CEE70224CCE700BF2002560006
:10AE700010B5104C94F8833033B1E06D10F0010040
:10AE800002D1FEF759FE00B910BD436ADB06F8D5C2
:10AE90004EF6602294F884304FF482715343064892
:10AEA000002273F091FA0028EED1E36D43F0010324
:10AEB000E365E9E708120020CC1200202DE9F341F8
:10AEC000D0F8016001A90078FEF722FE05460028AF
:10AED00031D1019C676A7A0415D4730704F1010823
:10AEE00030D54146062073F093FD002842D1A37966
:10AEF00003F03F03A3711423E371636A43F4004337
:10AF000043F008036362A36AF0064CBF43F40053A6
:10AF100023F40053A362636AB1064CBF43F40033C9
:10AF200023F4003372064CBF43F4802323F48023C0
:10AF300043F002036362114855F020F9858002B0A6
:10AF4000BDE8F0814046FFF7BBFA78B90C4B47F0FB
:10AF50000807D3F86720C4F80120B3F86B2093F8F2
:10AF60006D30A8F8042088F806306762636A23F41D
:10AF70000043C7E740F20745DDE700BF20020412A7
:10AF800008120020F8B5456A0446690419D4184F20
:10AF900005F4004397F88320012A13D1826A9204B2
:10AFA00010D473B1411C062073F032FD48B9A37967
:10AFB00003F03F03A3711423E371636A43F00803B2
:10AFC0006362F8BD002BFCD1661C3046FFF778FAAF
:10AFD0000028F6D1D7F86720064BC4F801209A88DC
:10AFE0009B7945F00805A4F80520E3716562E8E760
:10AFF000081200206F12002022F00042052A38B506
:10B000000DD0B2F5827F15D0032A06D11D4AD36D2B
:10B0100023F00203D365FFF775FD002038BD194A00
:10B020001B88B2F880109942F7D10023A2F8803033
:10B030000120F3E7134DEB6D23F00103EB6595F869
:10B040008330012BF4D10020FEF776FD044640B991
:10B05000FFF70EFFEB6D43F00403EB65FFF752FDC6
:10B06000E6E7636ADA060BD55B0409D42046FFF7EE
:10B0700089FF636A204643F006036362FFF7E8FD39
:10B080002046E1E70812002022F00042B2F1A04F72
:10B0900008B504D10348AAF014FC012008BD002023
:10B0A000FCE700BF60F60C0822F00042B2F5887F92
:10B0B00019462DE9F04700F0ED800ED840F2031359
:10B0C0009A423FD040F209139A4200F0CD800E2AF6
:10B0D00000F0BE800020BDE8F08740F207239A42CE
:10B0E00049D0B2F5037F5ED040F206239A42F1D1F7
:10B0F0000C686D4894F8523094F8735003F00703CD
:10B100000344543093F84CA094F8709094F97580EF
:10B1100094F876708E88AAF0D4FB0028DAD0E36C1D
:10B120004360B4F8503080F80AA003816B1E5D4282
:10B130005D41C57280F80C9080F80D808773A0F88F
:10B140000F60C7E70C782046FEF77EFC0028C1D0D0
:10B150005648B1F802808F88CE880D7AAAF0B1FBEC
:10B160000028B7D00471A0F80580A0F80770A0F8F7
:10B170000960C572AEE70C782046FEF765FC002832
:10B18000A8D04B784A48013BDBB20A2B97BF464A0E
:10B1900000259B1893F85C50AAF093FB002899D0E7
:10B1A0000471457196E78C78012C1FD0022C2FD0AA
:10B1B000D4B9CB780E78023BDBB2022B8CBF0124D2
:10B1C000394A91F904809CBF9B1893F86C404F79E1
:10B1D00091F906503748AAF074FB28B10671447102
:10B1E00080F80680C7710572012074E7CB780E786D
:10B1F000023BDBB2022B98BF2B4A91F904809CBF23
:10B200009B1893F86C404F7991F906502A48E2E771
:10B21000CB782A48023BDBB2022B97BF224A01249B
:10B220009B1893F86C404E780D7891F9049091F842
:10B23000058091F90670AAF044FB0028D4D08680DE
:10B240008571C47180F8089080F809808772CBE717
:10B250000B460822002113F8014B1948AAF042FBC3
:10B260000028C1D00471BFE7164891F800804F88CC
:10B270008E88CD880C89AAF024FB0028B4D080F8F1
:10B280000480A0F80570A0F80760A0F80950A0F8A5
:10B290000B40A9E70C481C78AAF013FB00283FF4E8
:10B2A00019AF047116E700BF18F60C0870F60C0809
:10B2B00080F60C0888F60C088CF60C0890F60C0842
:10B2C00094F60C0898F60C089CF60C08184640F208
:10B2D0000A4322F000429A422DE9F04110D8B2F51B
:10B2E000806F40F2B3806FF48063D318092B00F2B3
:10B2F000AD80DFE803F05716263723232323AB570F
:10B3000040F201539A423BD0A2F20253032B00F2C7
:10B310009D80A2F20352022A56D8DFE802F05D8037
:10B32000930005784468826900F1080300214848C9
:10B33000AAF0D8FA10B10571C0F805400120BDE8A7
:10B34000F081067845880479826900F108030021BC
:10B350004048AAF0C7FA0028F0D00671A0F80550BE
:10B36000C471EBE7057844884269031D00213A481F
:10B37000AAF0B8FA0028E1D00571A0F80540DDE791
:10B38000077846880579C48800F10802002133480F
:10B39000AAF0CDFA0028D1D00771A0F80560C571D8
:10B3A0000481CBE740F201439A4205D105784488F5
:10B3B0002B48AAF086FADDE704782A48AAF081FA39
:10B3C0000028BBD00471B9E7077846880579C4889E
:10B3D0002548AAF076FADDE787680678458804797B
:10B3E00077B1C78800F1080200212048AAF09FFA2F
:10B3F0000028A3D00671A0F80550C47107819DE70D
:10B400003B463A4639461948AAF06CFA002895D0CE
:10B410000671A0F80550C471077247728EE790F864
:10B42000008047880679C58804891148AAF049FA3E
:10B43000002883D080F80480A0F80570C6710581CB
:10B4400044817BE7057844680A48B2E7002076E744
:10B45000A0F60C08A4F60C08A8F60C08ACF60C082C
:10B46000B0F60C08B4F60C08B8F60C08BCF60C08DC
:10B47000C0F60C08C4F60C082DE9F8430023254C4F
:10B480008C21C4F8D430A4F8D83002680120C4F864
:10B49000D42094F8D49023604A4673F04FF80546C0
:10B4A00020BBA046064648F8D00F4E4521D31A4986
:10B4B0001A48BCF022FAB4F8D640A4F11B03E02BE2
:10B4C00014D8042142F22400FFF74AF96FF06F0309
:10B4D00043714223A0F803408371114851F0E2FA0E
:10B4E000FFF730F943790BB1FFF733F92846BDE890
:10B4F000F883012073F088F807468C22002101367A
:10B50000A6F01AFC87F87060C8F8007007F104080C
:10B51000CBE700BF08120020BC330220CC12002071
:10B5200029430B0810B5114BD3F8DC301C7FD4B184
:10B53000102C28BF1024BCF033FA621C81B2002307
:10B540000720D2B272F0FAFF044650B90849094800
:10B55000BCF0D3F908480949BCF0CFF9084873F0AA
:10B56000FBF9204610BD0424E5E700BF08120020C7
:10B57000CC330220E8120020EC120020DC33022041
:10B58000EC33022030B5124B0D469942144689B077
:10B590001BD1930011D505A906A872F0B5FF0723AA
:10B5A00000220393059BE1B20293069B2846CDE956
:10B5B000003241F00051BCF075F90648AAF081F95B
:10B5C00000B10471012009B030BD0020FBE700BFCD
:10B5D000EC120020C8F60C08F0B5054685B02848E6
:10B5E000AAF0C1F8002844D02C68002C43DB0023CB
:10B5F0006F686E7A2D7A1A46224845F00051BCF0E9
:10B600003FF900231F481A4645F08041BCF038F945
:10B610004CB3072073F00EF801282ED9631EB3F542
:10B62000A37F98BF4FF4A474BDF0B6FDA4FB000344
:10B63000C40B44EA4344BDF0AFFD0722A7FB003032
:10B64000DB0B43EA4043002E0CBF4FF000514FF09C
:10B650008041CDE9023200220A48CDE90042294367
:10B66000BCF020F90446084854F088FD848005B0F9
:10B67000F0BD0224F7E72124F5E71A24F3E700BF21
:10B68000F4330220EC1200202002011A13B50C46FC
:10B6900001A9BDF087FD10B9019BC4E9003002B0DB
:10B6A00010BDF7B5186810F0020004D01A4DD5F897
:10B6B000E81011B9012003B0F0BD00240422234694
:10B6C00068460094BCF016FABDF80230DB070AD4D5
:10B6D00005F1E800BCF036FA042101900DEB010001
:10B6E000BCF0A2FA019C00260C4F57F8043B23B192
:10B6F0002146BDF80000984748B1D5F8E830002B46
:10B70000D8D0022195F9040172F0BAFCD2E70136D3
:10B71000062EEAD1F1E700BF08120020F412002043
:10B720007FB51C4640F20A6322F000429A4206D8D6
:10B73000B2F5C06F06D8032A20D00D2A4CD00020C5
:10B7400004B070BD6FF4C0631A44092AF7D801A38E
:10B7500053F822F043B80008F1B7000815B8000804
:10B7600025B800083BB800083FB700085BB80008E0
:10B7700071B8000895B80008E5B80008002402A8D0
:10B7800009F066FD01A8BDF80850019478F011FE9B
:10B7900000B101945548019CAAF093F80028CED03E
:10B7A000002343718371C37143726FF0010383728D
:10B7B0004FF0FF33C3723E2383746FF011030922ED
:10B7C000C3746FF063030271037501224D2302728B
:10B7D000C46005824375B2E723460422002153F872
:10B7E000044B4348AAF07EF80028A8D08480A6E73E
:10B7F00025782846FEF728F90028A0D03D4894F97E
:10B800000160A478AAF05DF8002898D0057146710F
:10B81000847194E724783848AAF053F800288ED031
:10B8200004718CE7257835486468AAF04AF8002846
:10B8300085D00571C0F8054081E7257830486468F7
:10B84000F3E7304825786468AAF03BF800283FF415
:10B8500076AF0571A0F8054071E72B48257864683C
:10B86000AAF02FF800283FF46AAF0571447166E72B
:10B87000627826480D2A97BF254B01259B1893F81F
:10B88000D4502478AAF01DF800283FF458AF047172
:10B89000457154E7627800210D2A98BF1C4B1D4862
:10B8A0009CBF9B1893F8D450A278636888BF012589
:10B8B0002678AAF017F808B1067145716378012B54
:10B8C0003FF63DAF8DF8083001220021114802AB50
:10B8D0002478AAF007F800283FF431AF012304715F
:10B8E00043712CE724780C4896E700BFCCF60C088F
:10B8F000D0F60C08D4F60C08D8F60C08DCF60C08C8
:10B90000E0F60C08E4F60C08E8F60C08FCF60C0867
:10B9100018F60C0800F70C0804F70C08F7B51F68B8
:10B92000F90726D54FF6FF730025284C284EA4F8BA
:10B930005630284B06F14C0104F1C400C4F808311C
:10B94000C4E91055C4E9125584F834502565BBF09C
:10B95000D4FF2149084678F045FBF7232846A6F88E
:10B960005C30FEF77FF806F1600104F1C400BBF023
:10B97000C4FFBA0727D5154C236CF3B9A36CE3B900
:10B98000164D0193C1F0E0F904462846BCF0DAF800
:10B9900001902046C1F0D3F90199A1B14B799B07E1
:10B9A0000FD4022101A8BCF03FF901990C48BCF06A
:10B9B00022F90220FEF756F8E4E70220FEF752F8DB
:10B9C000DAE70848F3E7002003B0F0BD08120020D2
:10B9D000BC3302200DD6000808F70C081413002011
:10B9E00048120020501200202DE9F04F87B0059337
:10B9F000BDF8403004460393BDF84430154602912B
:10BA000004932BB1129B1BB9212007B0BDE8F08F26
:10BA100015F0300916BF4FF003084FF0020801235C
:10BA20005FFA88FB18BFC5F340195A464FF0000172
:10BA300058461ABF4FEA49090193CDF80490FEF722
:10BA40001DFC08B91A20E0E72046FDF78BFF0446ED
:10BA50000028D9D04088FEF718F90028D4D0667A9B
:10BA60007307039B48BF06F0FB0603F1060080B294
:10BA700048BF46F02006FEF7BBFB82460028E1D017
:10BA80002046FEF749FE414B00F11004D9899A681F
:10BA9000074602EB0112944252D15846FDF71FFFB0
:10BAA000044642F60300FDF70DFF637AEDB233431F
:10BAB0006372374B60806360052302202372029912
:10BAC0002573FEF767FC4FF6FF73984203D1029B84
:10BAD0001888FDF79BFE637EE0811E43059B608214
